{
  "contractName": "ProposalFactory",
  "abi": [
    {
      "anonymous": false,
      "inputs": [
        {
          "indexed": true,
          "internalType": "address",
          "name": "previousOwner",
          "type": "address"
        },
        {
          "indexed": true,
          "internalType": "address",
          "name": "newOwner",
          "type": "address"
        }
      ],
      "name": "OwnershipTransferred",
      "type": "event"
    },
    {
      "anonymous": false,
      "inputs": [
        {
          "indexed": false,
          "internalType": "uint256",
          "name": "_proposalID",
          "type": "uint256"
        },
        {
          "indexed": false,
          "internalType": "string",
          "name": "_name",
          "type": "string"
        },
        {
          "indexed": false,
          "internalType": "address",
          "name": "_proposer",
          "type": "address"
        }
      ],
      "name": "ProposalCreated",
      "type": "event"
    },
    {
      "inputs": [],
      "name": "owner",
      "outputs": [
        {
          "internalType": "address",
          "name": "",
          "type": "address"
        }
      ],
      "stateMutability": "view",
      "type": "function",
      "constant": true
    },
    {
      "inputs": [],
      "name": "renounceOwnership",
      "outputs": [],
      "stateMutability": "nonpayable",
      "type": "function"
    },
    {
      "inputs": [
        {
          "internalType": "address",
          "name": "newOwner",
          "type": "address"
        }
      ],
      "name": "transferOwnership",
      "outputs": [],
      "stateMutability": "nonpayable",
      "type": "function"
    },
    {
      "inputs": [
        {
          "internalType": "string",
          "name": "_name",
          "type": "string"
        },
        {
          "internalType": "string[]",
          "name": "_options",
          "type": "string[]"
        },
        {
          "internalType": "address payable",
          "name": "_proposer",
          "type": "address"
        }
      ],
      "name": "createProposal",
      "outputs": [],
      "stateMutability": "nonpayable",
      "type": "function"
    },
    {
      "inputs": [
        {
          "internalType": "uint256",
          "name": "id",
          "type": "uint256"
        }
      ],
      "name": "getProposalDetails",
      "outputs": [
        {
          "internalType": "string",
          "name": "",
          "type": "string"
        },
        {
          "internalType": "address",
          "name": "",
          "type": "address"
        },
        {
          "internalType": "uint256",
          "name": "",
          "type": "uint256"
        }
      ],
      "stateMutability": "view",
      "type": "function",
      "constant": true
    },
    {
      "inputs": [],
      "name": "getNextProposalID",
      "outputs": [
        {
          "internalType": "uint256",
          "name": "",
          "type": "uint256"
        }
      ],
      "stateMutability": "view",
      "type": "function",
      "constant": true
    },
    {
      "inputs": [
        {
          "internalType": "uint256",
          "name": "_proposalID",
          "type": "uint256"
        },
        {
          "internalType": "uint256",
          "name": "_optionID",
          "type": "uint256"
        }
      ],
      "name": "getOptionName",
      "outputs": [
        {
          "internalType": "string",
          "name": "",
          "type": "string"
        }
      ],
      "stateMutability": "view",
      "type": "function",
      "constant": true
    },
    {
      "inputs": [
        {
          "internalType": "uint256",
          "name": "_proposalID",
          "type": "uint256"
        }
      ],
      "name": "getOptionsCount",
      "outputs": [
        {
          "internalType": "uint256",
          "name": "",
          "type": "uint256"
        }
      ],
      "stateMutability": "view",
      "type": "function",
      "constant": true
    }
  ],
  "bytecode": "0x608060405234801561001057600080fd5b5060006100216100c460201b60201c565b9050806000806101000a81548173ffffffffffffffffffffffffffffffffffffffff021916908373ffffffffffffffffffffffffffffffffffffffff1602179055508073ffffffffffffffffffffffffffffffffffffffff16600073ffffffffffffffffffffffffffffffffffffffff167f8be0079c531659141344cd1fd0a4f28419497f9722a3daafe3b4186f6b6457e060405160405180910390a3506100cc565b600033905090565b6130b2806100db6000396000f3fe60806040523480156200001157600080fd5b5060043610620000945760003560e01c8063517a62571162000063578063517a62571462000149578063715018a6146200017f5780638da5cb5b146200018b578063f2fde38b14620001ad5762000094565b806304b07cc8146200009957806307e59df414620000cf5780632d4b389914620000ef5780633b4d01a71462000111575b600080fd5b620000b76004803603810190620000b1919062000c21565b620001cd565b604051620000c6919062000e1f565b60405180910390f35b620000ed6004803603810190620000e7919062000b55565b6200028c565b005b620000f96200047a565b60405162000108919062000f36565b60405180910390f35b6200012f600480360381019062000129919062000bef565b62000484565b604051620001409392919062000e43565b60405180910390f35b62000167600480360381019062000161919062000bef565b6200058e565b60405162000176919062000f36565b60405180910390f35b62000189620005ae565b005b62000195620006ef565b604051620001a4919062000e02565b60405180910390f35b620001cb6004803603810190620001c5919062000b23565b62000718565b005b606060046000848152602001908152602001600020600083815260200190815260200160002080546200020090620011bb565b80601f01602080910402602001604051908101604052809291908181526020018280546200022e90620011bb565b80156200027f5780601f1062000253576101008083540402835291602001916200027f565b820191906000526020600020905b8154815290600101906020018083116200026157829003601f168201915b5050505050905092915050565b6000604051806080016040528060015481526020018581526020018373ffffffffffffffffffffffffffffffffffffffff168152602001845181525090508060036000600154815260200190815260200160002060008201518160000155602082015181600101908051906020019062000308929190620008d3565b5060408201518160020160006101000a81548173ffffffffffffffffffffffffffffffffffffffff021916908373ffffffffffffffffffffffffffffffffffffffff1602179055506060820151816003015590505060005b8351811015620003da5783818151811062000380576200037f620012d3565b5b602002602001015160046000600154815260200190815260200160002060008381526020019081526020016000209080519060200190620003c3929190620008d3565b508080620003d19062001227565b91505062000360565b5083836001548433604051620003f09062000964565b6200040095949392919062000e87565b604051809103906000f0801580156200041d573d6000803e3d6000fd5b50507fc8c078bfee58e5822588f08b4509ed1eb5058e03f666cca84dd2d44bf5c288a86001548584604051620004569392919062000f53565b60405180910390a1600180546200046e91906200108b565b60018190555050505050565b6000600154905090565b6060600080600360008581526020019081526020016000206001016003600086815260200190815260200160002060020160009054906101000a900473ffffffffffffffffffffffffffffffffffffffff166003600087815260200190815260200160002060030154828054620004fb90620011bb565b80601f01602080910402602001604051908101604052809291908181526020018280546200052990620011bb565b80156200057a5780601f106200054e576101008083540402835291602001916200057a565b820191906000526020600020905b8154815290600101906020018083116200055c57829003601f168201915b505050505092509250925092509193909250565b600060036000838152602001908152602001600020600301549050919050565b620005b8620008cb565b73ffffffffffffffffffffffffffffffffffffffff16620005d8620006ef565b73ffffffffffffffffffffffffffffffffffffffff161462000631576040517f08c379a0000000000000000000000000000000000000000000000000000000008152600401620006289062000f14565b60405180910390fd5b600073ffffffffffffffffffffffffffffffffffffffff1660008054906101000a900473ffffffffffffffffffffffffffffffffffffffff1673ffffffffffffffffffffffffffffffffffffffff167f8be0079c531659141344cd1fd0a4f28419497f9722a3daafe3b4186f6b6457e060405160405180910390a360008060006101000a81548173ffffffffffffffffffffffffffffffffffffffff021916908373ffffffffffffffffffffffffffffffffffffffff160217905550565b60008060009054906101000a900473ffffffffffffffffffffffffffffffffffffffff16905090565b62000722620008cb565b73ffffffffffffffffffffffffffffffffffffffff1662000742620006ef565b73ffffffffffffffffffffffffffffffffffffffff16146200079b576040517f08c379a0000000000000000000000000000000000000000000000000000000008152600401620007929062000f14565b60405180910390fd5b600073ffffffffffffffffffffffffffffffffffffffff168173ffffffffffffffffffffffffffffffffffffffff1614156200080e576040517f08c379a0000000000000000000000000000000000000000000000000000000008152600401620008059062000ef2565b60405180910390fd5b8073ffffffffffffffffffffffffffffffffffffffff1660008054906101000a900473ffffffffffffffffffffffffffffffffffffffff1673ffffffffffffffffffffffffffffffffffffffff167f8be0079c531659141344cd1fd0a4f28419497f9722a3daafe3b4186f6b6457e060405160405180910390a3806000806101000a81548173ffffffffffffffffffffffffffffffffffffffff021916908373ffffffffffffffffffffffffffffffffffffffff16021790555050565b600033905090565b828054620008e190620011bb565b90600052602060002090601f01602090048101928262000905576000855562000951565b82601f106200092057805160ff191683800117855562000951565b8280016001018555821562000951579182015b828111156200095057825182559160200191906001019062000933565b5b50905062000960919062000972565b5090565b611c5b806200142283390190565b5b808211156200098d57600081600090555060010162000973565b5090565b6000620009a8620009a28462000fc0565b62000f97565b90508083825260208201905082856020860282011115620009ce57620009cd62001336565b5b60005b8581101562000a2357813567ffffffffffffffff811115620009f857620009f762001331565b5b80860162000a07898262000ad9565b85526020850194506020840193505050600181019050620009d1565b5050509392505050565b600062000a4462000a3e8462000fef565b62000f97565b90508281526020810184848401111562000a635762000a626200133b565b5b62000a7084828562001176565b509392505050565b60008135905062000a8981620013d3565b92915050565b60008135905062000aa081620013ed565b92915050565b600082601f83011262000abe5762000abd62001331565b5b813562000ad084826020860162000991565b91505092915050565b600082601f83011262000af15762000af062001331565b5b813562000b0384826020860162000a2d565b91505092915050565b60008135905062000b1d8162001407565b92915050565b60006020828403121562000b3c5762000b3b62001345565b5b600062000b4c8482850162000a78565b91505092915050565b60008060006060848603121562000b715762000b7062001345565b5b600084013567ffffffffffffffff81111562000b925762000b9162001340565b5b62000ba08682870162000ad9565b935050602084013567ffffffffffffffff81111562000bc45762000bc362001340565b5b62000bd28682870162000aa6565b925050604062000be58682870162000a8f565b9150509250925092565b60006020828403121562000c085762000c0762001345565b5b600062000c188482850162000b0c565b91505092915050565b6000806040838503121562000c3b5762000c3a62001345565b5b600062000c4b8582860162000b0c565b925050602062000c5e8582860162000b0c565b9150509250929050565b600062000c76838362000d21565b905092915050565b62000c89816200113a565b82525050565b62000c9a81620010e8565b82525050565b600062000cad8262001035565b62000cb9818562001058565b93508360208202850162000ccd8562001025565b8060005b8581101562000d0f578484038952815162000ced858262000c68565b945062000cfa836200104b565b925060208a0199505060018101905062000cd1565b50829750879550505050505092915050565b600062000d2e8262001040565b62000d3a818562001069565b935062000d4c81856020860162001185565b62000d57816200134a565b840191505092915050565b600062000d6f8262001040565b62000d7b81856200107a565b935062000d8d81856020860162001185565b62000d98816200134a565b840191505092915050565b600062000db26026836200107a565b915062000dbf826200135b565b604082019050919050565b600062000dd96020836200107a565b915062000de682620013aa565b602082019050919050565b62000dfc8162001130565b82525050565b600060208201905062000e19600083018462000c8f565b92915050565b6000602082019050818103600083015262000e3b818462000d62565b905092915050565b6000606082019050818103600083015262000e5f818662000d62565b905062000e70602083018562000c8f565b62000e7f604083018462000df1565b949350505050565b600060a082019050818103600083015262000ea3818862000d62565b9050818103602083015262000eb9818762000ca0565b905062000eca604083018662000df1565b62000ed9606083018562000c7e565b62000ee8608083018462000c8f565b9695505050505050565b6000602082019050818103600083015262000f0d8162000da3565b9050919050565b6000602082019050818103600083015262000f2f8162000dca565b9050919050565b600060208201905062000f4d600083018462000df1565b92915050565b600060608201905062000f6a600083018662000df1565b818103602083015262000f7e818562000d62565b905062000f8f604083018462000c7e565b949350505050565b600062000fa362000fb6565b905062000fb18282620011f1565b919050565b6000604051905090565b600067ffffffffffffffff82111562000fde5762000fdd62001302565b5b602082029050602081019050919050565b600067ffffffffffffffff8211156200100d576200100c62001302565b5b62001018826200134a565b9050602081019050919050565b6000819050602082019050919050565b600081519050919050565b600081519050919050565b6000602082019050919050565b600082825260208201905092915050565b600082825260208201905092915050565b600082825260208201905092915050565b6000620010988262001130565b9150620010a58362001130565b9250827fffffffffffffffffffffffffffffffffffffffffffffffffffffffffffffffff03821115620010dd57620010dc62001275565b5b828201905092915050565b6000620010f58262001110565b9050919050565b6000620011098262001110565b9050919050565b600073ffffffffffffffffffffffffffffffffffffffff82169050919050565b6000819050919050565b600062001147826200114e565b9050919050565b60006200115b8262001162565b9050919050565b60006200116f8262001110565b9050919050565b82818337600083830152505050565b60005b83811015620011a557808201518184015260208101905062001188565b83811115620011b5576000848401525b50505050565b60006002820490506001821680620011d457607f821691505b60208210811415620011eb57620011ea620012a4565b5b50919050565b620011fc826200134a565b810181811067ffffffffffffffff821117156200121e576200121d62001302565b5b80604052505050565b6000620012348262001130565b91507fffffffffffffffffffffffffffffffffffffffffffffffffffffffffffffffff8214156200126a576200126962001275565b5b600182019050919050565b7f4e487b7100000000000000000000000000000000000000000000000000000000600052601160045260246000fd5b7f4e487b7100000000000000000000000000000000000000000000000000000000600052602260045260246000fd5b7f4e487b7100000000000000000000000000000000000000000000000000000000600052603260045260246000fd5b7f4e487b7100000000000000000000000000000000000000000000000000000000600052604160045260246000fd5b600080fd5b600080fd5b600080fd5b600080fd5b600080fd5b6000601f19601f8301169050919050565b7f4f776e61626c653a206e6577206f776e657220697320746865207a65726f206160008201527f6464726573730000000000000000000000000000000000000000000000000000602082015250565b7f4f776e61626c653a2063616c6c6572206973206e6f7420746865206f776e6572600082015250565b620013de81620010e8565b8114620013ea57600080fd5b50565b620013f881620010fc565b81146200140457600080fd5b50565b620014128162001130565b81146200141e57600080fd5b5056fe60806040523480156200001157600080fd5b5060405162001c5b38038062001c5b83398181016040528101906200003791906200043a565b6000620000496200020760201b60201c565b9050806000806101000a81548173ffffffffffffffffffffffffffffffffffffffff021916908373ffffffffffffffffffffffffffffffffffffffff1602179055508073ffffffffffffffffffffffffffffffffffffffff16600073ffffffffffffffffffffffffffffffffffffffff167f8be0079c531659141344cd1fd0a4f28419497f9722a3daafe3b4186f6b6457e060405160405180910390a3508460019080519060200190620000ff9291906200020f565b508260028190555081600360006101000a81548173ffffffffffffffffffffffffffffffffffffffff021916908373ffffffffffffffffffffffffffffffffffffffff16021790555060005b8451811015620001b2578481815181106200016b576200016a6200071a565b5b60200260200101516006600083815260200190815260200160002090805190602001906200019b9291906200020f565b508080620001a9906200066e565b9150506200014b565b50835160048190555080600560016101000a81548173ffffffffffffffffffffffffffffffffffffffff021916908373ffffffffffffffffffffffffffffffffffffffff1602179055505050505050620007d6565b600033905090565b8280546200021d9062000602565b90600052602060002090601f0160209004810192826200024157600085556200028d565b82601f106200025c57805160ff19168380011785556200028d565b828001600101855582156200028d579182015b828111156200028c5782518255916020019190600101906200026f565b5b5090506200029c9190620002a0565b5090565b5b80821115620002bb576000816000905550600101620002a1565b5090565b6000620002d6620002d08462000529565b62000500565b90508083825260208201905082856020860282011115620002fc57620002fb6200077d565b5b60005b858110156200035157815167ffffffffffffffff81111562000326576200032562000778565b5b808601620003358982620003f0565b85526020850194506020840193505050600181019050620002ff565b5050509392505050565b6000620003726200036c8462000558565b62000500565b90508281526020810184848401111562000391576200039062000782565b5b6200039e848285620005cc565b509392505050565b600081519050620003b781620007a2565b92915050565b600082601f830112620003d557620003d462000778565b5b8151620003e7848260208601620002bf565b91505092915050565b600082601f83011262000408576200040762000778565b5b81516200041a8482602086016200035b565b91505092915050565b6000815190506200043481620007bc565b92915050565b600080600080600060a086880312156200045957620004586200078c565b5b600086015167ffffffffffffffff8111156200047a576200047962000787565b5b6200048888828901620003f0565b955050602086015167ffffffffffffffff811115620004ac57620004ab62000787565b5b620004ba88828901620003bd565b9450506040620004cd8882890162000423565b9350506060620004e088828901620003a6565b9250506080620004f388828901620003a6565b9150509295509295909350565b60006200050c6200051f565b90506200051a828262000638565b919050565b6000604051905090565b600067ffffffffffffffff82111562000547576200054662000749565b5b602082029050602081019050919050565b600067ffffffffffffffff82111562000576576200057562000749565b5b620005818262000791565b9050602081019050919050565b60006200059b82620005a2565b9050919050565b600073ffffffffffffffffffffffffffffffffffffffff82169050919050565b6000819050919050565b60005b83811015620005ec578082015181840152602081019050620005cf565b83811115620005fc576000848401525b50505050565b600060028204905060018216806200061b57607f821691505b60208210811415620006325762000631620006eb565b5b50919050565b620006438262000791565b810181811067ffffffffffffffff8211171562000665576200066462000749565b5b80604052505050565b60006200067b82620005c2565b91507fffffffffffffffffffffffffffffffffffffffffffffffffffffffffffffffff821415620006b157620006b0620006bc565b5b600182019050919050565b7f4e487b7100000000000000000000000000000000000000000000000000000000600052601160045260246000fd5b7f4e487b7100000000000000000000000000000000000000000000000000000000600052602260045260246000fd5b7f4e487b7100000000000000000000000000000000000000000000000000000000600052603260045260246000fd5b7f4e487b7100000000000000000000000000000000000000000000000000000000600052604160045260246000fd5b600080fd5b600080fd5b600080fd5b600080fd5b600080fd5b6000601f19601f8301169050919050565b620007ad816200058e565b8114620007b957600080fd5b50565b620007c781620005c2565b8114620007d357600080fd5b50565b61147580620007e66000396000f3fe608060405234801561001057600080fd5b50600436106101005760003560e01c8063a8e4fb9011610097578063cbff75cb11610066578063cbff75cb14610267578063f2fde38b14610297578063f851a440146102b3578063ff91bb45146102d157610100565b8063a8e4fb90146101f1578063af640d0f1461020f578063b201c6961461022d578063b95046241461023757610100565b80637b352962116100d35780637b352962146101555780637f2ef1d5146101735780638d337b81146101a35780638da5cb5b146101d357610100565b806306fdde0314610105578063136c6dd3146101235780631a1dbabb1461012d578063715018a61461014b575b600080fd5b61010d6102ed565b60405161011a9190610f6f565b60405180910390f35b61012b61037b565b005b610135610480565b6040516101429190611071565b60405180910390f35b610153610486565b005b61015d6105c0565b60405161016a9190610f54565b60405180910390f35b61018d60048036038101906101889190610d01565b6105d3565b60405161019a9190610f6f565b60405180910390f35b6101bd60048036038101906101b89190610c94565b610678565b6040516101ca9190611071565b60405180910390f35b6101db6106c1565b6040516101e89190610f09565b60405180910390f35b6101f96106ea565b6040516102069190610f09565b60405180910390f35b610217610710565b6040516102249190611071565b60405180910390f35b610235610716565b005b610251600480360381019061024c9190610d01565b61081b565b60405161025e9190611071565b60405180910390f35b610281600480360381019061027c9190610c94565b610838565b60405161028e9190610f54565b60405180910390f35b6102b160048036038101906102ac9190610c94565b61088e565b005b6102bb610a37565b6040516102c89190610f09565b60405180910390f35b6102eb60048036038101906102e69190610cc1565b610a5d565b005b600180546102fa9061118e565b80601f01602080910402602001604051908101604052809291908181526020018280546103269061118e565b80156103735780601f1061034857610100808354040283529160200191610373565b820191906000526020600020905b81548152906001019060200180831161035657829003601f168201915b505050505081565b600360009054906101000a900473ffffffffffffffffffffffffffffffffffffffff1673ffffffffffffffffffffffffffffffffffffffff163373ffffffffffffffffffffffffffffffffffffffff1614806104245750600560019054906101000a900473ffffffffffffffffffffffffffffffffffffffff1673ffffffffffffffffffffffffffffffffffffffff163373ffffffffffffffffffffffffffffffffffffffff16145b610463576040517f08c379a000000000000000000000000000000000000000000000000000000000815260040161045a90610ff1565b60405180910390fd5b6001600560006101000a81548160ff021916908315150217905550565b60045481565b61048e610c62565b73ffffffffffffffffffffffffffffffffffffffff166104ac6106c1565b73ffffffffffffffffffffffffffffffffffffffff1614610502576040517f08c379a00000000000000000000000000000000000000000000000000000000081526004016104f990611011565b60405180910390fd5b600073ffffffffffffffffffffffffffffffffffffffff1660008054906101000a900473ffffffffffffffffffffffffffffffffffffffff1673ffffffffffffffffffffffffffffffffffffffff167f8be0079c531659141344cd1fd0a4f28419497f9722a3daafe3b4186f6b6457e060405160405180910390a360008060006101000a81548173ffffffffffffffffffffffffffffffffffffffff021916908373ffffffffffffffffffffffffffffffffffffffff160217905550565b600560009054906101000a900460ff1681565b60606006600083815260200190815260200160002080546105f39061118e565b80601f016020809104026020016040519081016040528092919081815260200182805461061f9061118e565b801561066c5780601f106106415761010080835404028352916020019161066c565b820191906000526020600020905b81548152906001019060200180831161064f57829003601f168201915b50505050509050919050565b6000600860008373ffffffffffffffffffffffffffffffffffffffff1673ffffffffffffffffffffffffffffffffffffffff168152602001908152602001600020549050919050565b60008060009054906101000a900473ffffffffffffffffffffffffffffffffffffffff16905090565b600360009054906101000a900473ffffffffffffffffffffffffffffffffffffffff1681565b60025481565b600360009054906101000a900473ffffffffffffffffffffffffffffffffffffffff1673ffffffffffffffffffffffffffffffffffffffff163373ffffffffffffffffffffffffffffffffffffffff1614806107bf5750600560019054906101000a900473ffffffffffffffffffffffffffffffffffffffff1673ffffffffffffffffffffffffffffffffffffffff163373ffffffffffffffffffffffffffffffffffffffff16145b6107fe576040517f08c379a00000000000000000000000000000000000000000000000000000000081526004016107f590611051565b60405180910390fd5b6000600560006101000a81548160ff021916908315150217905550565b600060076000838152602001908152602001600020549050919050565b6000600960008373ffffffffffffffffffffffffffffffffffffffff1673ffffffffffffffffffffffffffffffffffffffff16815260200190815260200160002060009054906101000a900460ff169050919050565b610896610c62565b73ffffffffffffffffffffffffffffffffffffffff166108b46106c1565b73ffffffffffffffffffffffffffffffffffffffff161461090a576040517f08c379a000000000000000000000000000000000000000000000000000000000815260040161090190611011565b60405180910390fd5b600073ffffffffffffffffffffffffffffffffffffffff168173ffffffffffffffffffffffffffffffffffffffff16141561097a576040517f08c379a000000000000000000000000000000000000000000000000000000000815260040161097190610f91565b60405180910390fd5b8073ffffffffffffffffffffffffffffffffffffffff1660008054906101000a900473ffffffffffffffffffffffffffffffffffffffff1673ffffffffffffffffffffffffffffffffffffffff167f8be0079c531659141344cd1fd0a4f28419497f9722a3daafe3b4186f6b6457e060405160405180910390a3806000806101000a81548173ffffffffffffffffffffffffffffffffffffffff021916908373ffffffffffffffffffffffffffffffffffffffff16021790555050565b600560019054906101000a900473ffffffffffffffffffffffffffffffffffffffff1681565b6000829050610a6b81610838565b15610aab576040517f08c379a0000000000000000000000000000000000000000000000000000000008152600401610aa290610fd1565b60405180910390fd5b600560009054906101000a900460ff1615610afb576040517f08c379a0000000000000000000000000000000000000000000000000000000008152600401610af290610fb1565b60405180910390fd5b6004548210610b3f576040517f08c379a0000000000000000000000000000000000000000000000000000000008152600401610b3690611031565b60405180910390fd5b81600860008373ffffffffffffffffffffffffffffffffffffffff1673ffffffffffffffffffffffffffffffffffffffff168152602001908152602001600020819055506001600960008373ffffffffffffffffffffffffffffffffffffffff1673ffffffffffffffffffffffffffffffffffffffff16815260200190815260200160002060006101000a81548160ff02191690831515021790555060016007600084815260200190815260200160002054610bfb91906110bd565b60076000848152602001908152602001600020819055507f92a915dcf3b2bfe93782e1b79159058460495495f5be81d1dba1f5f8e6e2c3218160066000858152602001908152602001600020604051610c55929190610f24565b60405180910390a1505050565b600033905090565b600081359050610c7981611411565b92915050565b600081359050610c8e81611428565b92915050565b600060208284031215610caa57610ca961121e565b5b6000610cb884828501610c6a565b91505092915050565b60008060408385031215610cd857610cd761121e565b5b6000610ce685828601610c6a565b9250506020610cf785828601610c7f565b9150509250929050565b600060208284031215610d1757610d1661121e565b5b6000610d2584828501610c7f565b91505092915050565b610d3781611113565b82525050565b610d4681611125565b82525050565b6000610d57826110a1565b610d6181856110ac565b9350610d7181856020860161115b565b610d7a81611223565b840191505092915050565b60008154610d928161118e565b610d9c81866110ac565b94506001821660008114610db75760018114610dc957610dfc565b60ff1983168652602086019350610dfc565b610dd28561108c565b60005b83811015610df457815481890152600182019150602081019050610dd5565b808801955050505b50505092915050565b6000610e126026836110ac565b9150610e1d82611234565b604082019050919050565b6000610e356021836110ac565b9150610e4082611283565b604082019050919050565b6000610e586016836110ac565b9150610e63826112d2565b602082019050919050565b6000610e7b602a836110ac565b9150610e86826112fb565b604082019050919050565b6000610e9e6020836110ac565b9150610ea98261134a565b602082019050919050565b6000610ec16023836110ac565b9150610ecc82611373565b604082019050919050565b6000610ee4602a836110ac565b9150610eef826113c2565b604082019050919050565b610f0381611151565b82525050565b6000602082019050610f1e6000830184610d2e565b92915050565b6000604082019050610f396000830185610d2e565b8181036020830152610f4b8184610d85565b90509392505050565b6000602082019050610f696000830184610d3d565b92915050565b60006020820190508181036000830152610f898184610d4c565b905092915050565b60006020820190508181036000830152610faa81610e05565b9050919050565b60006020820190508181036000830152610fca81610e28565b9050919050565b60006020820190508181036000830152610fea81610e4b565b9050919050565b6000602082019050818103600083015261100a81610e6e565b9050919050565b6000602082019050818103600083015261102a81610e91565b9050919050565b6000602082019050818103600083015261104a81610eb4565b9050919050565b6000602082019050818103600083015261106a81610ed7565b9050919050565b60006020820190506110866000830184610efa565b92915050565b60008190508160005260206000209050919050565b600081519050919050565b600082825260208201905092915050565b60006110c882611151565b91506110d383611151565b9250827fffffffffffffffffffffffffffffffffffffffffffffffffffffffffffffffff03821115611108576111076111c0565b5b828201905092915050565b600061111e82611131565b9050919050565b60008115159050919050565b600073ffffffffffffffffffffffffffffffffffffffff82169050919050565b6000819050919050565b60005b8381101561117957808201518184015260208101905061115e565b83811115611188576000848401525b50505050565b600060028204905060018216806111a657607f821691505b602082108114156111ba576111b96111ef565b5b50919050565b7f4e487b7100000000000000000000000000000000000000000000000000000000600052601160045260246000fd5b7f4e487b7100000000000000000000000000000000000000000000000000000000600052602260045260246000fd5b600080fd5b6000601f19601f8301169050919050565b7f4f776e61626c653a206e6577206f776e657220697320746865207a65726f206160008201527f6464726573730000000000000000000000000000000000000000000000000000602082015250565b7f566f74696e6720706572696f6420697320616c72656164792066696e6973686560008201527f6400000000000000000000000000000000000000000000000000000000000000602082015250565b7f557365722068617320616c726561647920766f74656400000000000000000000600082015250565b7f596f7520617265206e6f7420616c6c6f77656420746f2066696e69736820746860008201527f652070726f706f73616c00000000000000000000000000000000000000000000602082015250565b7f4f776e61626c653a2063616c6c6572206973206e6f7420746865206f776e6572600082015250565b7f54686520766f7465206973206e6f742070617274206f6620746865206f70746960008201527f6f6e730000000000000000000000000000000000000000000000000000000000602082015250565b7f596f7520617265206e6f7420616c6c6f77656420746f20726573756d6520746860008201527f652070726f706f73616c00000000000000000000000000000000000000000000602082015250565b61141a81611113565b811461142557600080fd5b50565b61143181611151565b811461143c57600080fd5b5056fea264697066735822122009826dd92a68f2f9ef37cebee63035ea98d69767f4351df25b684874b0e6e50c64736f6c63430008050033a264697066735822122043a7b710b76bd3740c9b8c8acbc19d821fc6bd3a82bd504eaa13a7c4a799654864736f6c63430008050033",
  "immutableReferences": {},
  "source": "// SPDX-License-Identifier: MIT\npragma solidity ^0.8.4;\n\nimport './Propose.sol';\n\ncontract ProposalFactory is Ownable {\n    uint256 proposalID; // this increments everytime a proposal has been created\n\n    mapping(uint256 => address) proposer; // showing the address of the owner of a proposal id\n    mapping(uint256 => Proposal) proposalDetails; // maps the proposal details to a proposal id\n    mapping(uint256 => mapping(uint256 => string)) proposalOptions; // maps the options id and options title to a proposal id\n\n    struct Proposal {\n        uint256 id; // proposal ID\n        string name; // name of the proposal\n        address proposer; // address of the proposer\n        uint256 optionsCount; // number of options for this proposal\n    }\n\n    event ProposalCreated(uint256 _proposalID, string _name, address _proposer);\n\n    /**\n        @dev Creates the proposal\n        @param _name The name or title of the proposal\n        @param _options The array of options of the proposal\n        @param _proposer The address who proposed\n    */\n    function createProposal(\n        string memory _name,\n        string[] memory _options,\n        address payable _proposer\n    ) public {\n        Proposal memory proposal = Proposal(proposalID, _name, _proposer, _options.length);\n        proposalDetails[proposalID] = proposal;\n        for (uint256 i = 0; i < _options.length; i++) {\n            proposalOptions[proposalID][i] = _options[i];\n        }\n        new Propose(_name, _options, proposalID, _proposer, msg.sender);\n        emit ProposalCreated(proposalID, _name, _proposer);\n        proposalID = proposalID + 1;\n    }\n\n    /**\n        @dev Get the proposal details of a proposal ID\n        @param id The proposal ID that needs to be checked\n        @return The name of the proposal, the address of the proposer and the number of options of this proposal ID\n    */\n    function getProposalDetails(uint256 id)\n        public\n        view\n        returns (\n            string memory,\n            address,\n            uint256\n        )\n    {\n        return (proposalDetails[id].name, proposalDetails[id].proposer, proposalDetails[id].optionsCount);\n    }\n\n    /**\n        @dev Get the next proposal ID in case there is a need to know what will be the id to be assigned next\n        @return The ID that will be assigned next.\n    */\n    function getNextProposalID() public view returns (uint256) {\n        return (proposalID);\n    }\n\n    /**\n        @dev Get the name of an option\n        @param _proposalID The proposal ID that needs to be checked\n        @param _optionID The option ID that needs to be checked\n        @return The name of an option\n    */\n    function getOptionName(uint256 _proposalID, uint256 _optionID) public view returns (string memory) {\n        return (proposalOptions[_proposalID][_optionID]);\n    }\n\n    /**\n        @dev Get the number of options of the proposal\n        @param _proposalID The proposal ID that needs to be checked\n        @return The number of options of a proposal\n    */\n    function getOptionsCount(uint256 _proposalID) public view returns (uint256) {\n        return (proposalDetails[_proposalID].optionsCount);\n    }\n}\n",
  "sourcePath": "/Users/benjnp/mls/web/Pollo-project-AIBS/contracts/ProposalFactory.sol",
  "compiler": {
    "name": "solc",
    "version": "0.8.5+commit.a4f2e591.Emscripten.clang"
  },
  "schemaVersion": "3.3.3",
  "updatedAt": "2021-06-30T16:23:51.143Z",
  "networkType": "ethereum",
  "devdoc": {
    "kind": "dev",
    "methods": {
      "createProposal(string,string[],address)": {
        "details": "Creates the proposal",
        "params": {
          "_name": "The name or title of the proposal",
          "_options": "The array of options of the proposal",
          "_proposer": "The address who proposed"
        }
      },
      "getNextProposalID()": {
        "details": "Get the next proposal ID in case there is a need to know what will be the id to be assigned next",
        "returns": {
          "_0": "The ID that will be assigned next."
        }
      },
      "getOptionName(uint256,uint256)": {
        "details": "Get the name of an option",
        "params": {
          "_optionID": "The option ID that needs to be checked",
          "_proposalID": "The proposal ID that needs to be checked"
        },
        "returns": {
          "_0": "The name of an option"
        }
      },
      "getOptionsCount(uint256)": {
        "details": "Get the number of options of the proposal",
        "params": {
          "_proposalID": "The proposal ID that needs to be checked"
        },
        "returns": {
          "_0": "The number of options of a proposal"
        }
      },
      "getProposalDetails(uint256)": {
        "details": "Get the proposal details of a proposal ID",
        "params": {
          "id": "The proposal ID that needs to be checked"
        },
        "returns": {
          "_0": "The name of the proposal, the address of the proposer and the number of options of this proposal ID"
        }
      },
      "owner()": {
        "details": "Returns the address of the current owner."
      },
      "renounceOwnership()": {
        "details": "Leaves the contract without owner. It will not be possible to call `onlyOwner` functions anymore. Can only be called by the current owner. NOTE: Renouncing ownership will leave the contract without an owner, thereby removing any functionality that is only available to the owner."
      },
      "transferOwnership(address)": {
        "details": "Transfers ownership of the contract to a new account (`newOwner`). Can only be called by the current owner."
      }
    },
    "version": 1
  },
  "userdoc": {
    "kind": "user",
    "methods": {},
    "version": 1
  }
}