{
  "contractName": "Propose",
  "abi": [
    {
      "inputs": [
        {
          "internalType": "string",
          "name": "_name",
          "type": "string"
        },
        {
          "internalType": "string[]",
          "name": "_options",
          "type": "string[]"
        },
        {
          "internalType": "uint256",
          "name": "_id",
          "type": "uint256"
        },
        {
          "internalType": "address",
          "name": "_proposer",
          "type": "address"
        },
        {
          "internalType": "address",
          "name": "_admin",
          "type": "address"
        }
      ],
      "stateMutability": "nonpayable",
      "type": "constructor"
    },
    {
      "anonymous": false,
      "inputs": [
        {
          "indexed": true,
          "internalType": "address",
          "name": "previousOwner",
          "type": "address"
        },
        {
          "indexed": true,
          "internalType": "address",
          "name": "newOwner",
          "type": "address"
        }
      ],
      "name": "OwnershipTransferred",
      "type": "event"
    },
    {
      "anonymous": false,
      "inputs": [
        {
          "indexed": false,
          "internalType": "address",
          "name": "_voter",
          "type": "address"
        },
        {
          "indexed": false,
          "internalType": "string",
          "name": "vote",
          "type": "string"
        }
      ],
      "name": "UserVoted",
      "type": "event"
    },
    {
      "inputs": [],
      "name": "admin",
      "outputs": [
        {
          "internalType": "address",
          "name": "",
          "type": "address"
        }
      ],
      "stateMutability": "view",
      "type": "function"
    },
    {
      "inputs": [],
      "name": "id",
      "outputs": [
        {
          "internalType": "uint256",
          "name": "",
          "type": "uint256"
        }
      ],
      "stateMutability": "view",
      "type": "function"
    },
    {
      "inputs": [],
      "name": "isFinished",
      "outputs": [
        {
          "internalType": "bool",
          "name": "",
          "type": "bool"
        }
      ],
      "stateMutability": "view",
      "type": "function"
    },
    {
      "inputs": [],
      "name": "name",
      "outputs": [
        {
          "internalType": "string",
          "name": "",
          "type": "string"
        }
      ],
      "stateMutability": "view",
      "type": "function"
    },
    {
      "inputs": [],
      "name": "optionsCount",
      "outputs": [
        {
          "internalType": "uint256",
          "name": "",
          "type": "uint256"
        }
      ],
      "stateMutability": "view",
      "type": "function"
    },
    {
      "inputs": [],
      "name": "owner",
      "outputs": [
        {
          "internalType": "address",
          "name": "",
          "type": "address"
        }
      ],
      "stateMutability": "view",
      "type": "function"
    },
    {
      "inputs": [],
      "name": "proposer",
      "outputs": [
        {
          "internalType": "address",
          "name": "",
          "type": "address"
        }
      ],
      "stateMutability": "view",
      "type": "function"
    },
    {
      "inputs": [],
      "name": "renounceOwnership",
      "outputs": [],
      "stateMutability": "nonpayable",
      "type": "function"
    },
    {
      "inputs": [
        {
          "internalType": "address",
          "name": "newOwner",
          "type": "address"
        }
      ],
      "name": "transferOwnership",
      "outputs": [],
      "stateMutability": "nonpayable",
      "type": "function"
    },
    {
      "inputs": [
        {
          "internalType": "address",
          "name": "_voter",
          "type": "address"
        },
        {
          "internalType": "uint256",
          "name": "_vote",
          "type": "uint256"
        }
      ],
      "name": "castVote",
      "outputs": [],
      "stateMutability": "nonpayable",
      "type": "function"
    },
    {
      "inputs": [
        {
          "internalType": "address",
          "name": "_voter",
          "type": "address"
        }
      ],
      "name": "isVoted",
      "outputs": [
        {
          "internalType": "bool",
          "name": "",
          "type": "bool"
        }
      ],
      "stateMutability": "view",
      "type": "function"
    },
    {
      "inputs": [
        {
          "internalType": "address",
          "name": "_voter",
          "type": "address"
        }
      ],
      "name": "getVote",
      "outputs": [
        {
          "internalType": "uint256",
          "name": "",
          "type": "uint256"
        }
      ],
      "stateMutability": "view",
      "type": "function"
    },
    {
      "inputs": [
        {
          "internalType": "uint256",
          "name": "optionID",
          "type": "uint256"
        }
      ],
      "name": "getOptionVoteCount",
      "outputs": [
        {
          "internalType": "uint256",
          "name": "",
          "type": "uint256"
        }
      ],
      "stateMutability": "view",
      "type": "function"
    },
    {
      "inputs": [
        {
          "internalType": "uint256",
          "name": "optionID",
          "type": "uint256"
        }
      ],
      "name": "getOptionTitle",
      "outputs": [
        {
          "internalType": "string",
          "name": "",
          "type": "string"
        }
      ],
      "stateMutability": "view",
      "type": "function"
    },
    {
      "inputs": [],
      "name": "finishProposal",
      "outputs": [],
      "stateMutability": "nonpayable",
      "type": "function"
    },
    {
      "inputs": [],
      "name": "resumeProposal",
      "outputs": [],
      "stateMutability": "nonpayable",
      "type": "function"
    }
  ],
  "bytecode": "0x60806040523480156200001157600080fd5b5060405162001c5b38038062001c5b83398181016040528101906200003791906200043a565b6000620000496200020760201b60201c565b9050806000806101000a81548173ffffffffffffffffffffffffffffffffffffffff021916908373ffffffffffffffffffffffffffffffffffffffff1602179055508073ffffffffffffffffffffffffffffffffffffffff16600073ffffffffffffffffffffffffffffffffffffffff167f8be0079c531659141344cd1fd0a4f28419497f9722a3daafe3b4186f6b6457e060405160405180910390a3508460019080519060200190620000ff9291906200020f565b508260028190555081600360006101000a81548173ffffffffffffffffffffffffffffffffffffffff021916908373ffffffffffffffffffffffffffffffffffffffff16021790555060005b8451811015620001b2578481815181106200016b576200016a6200071a565b5b60200260200101516006600083815260200190815260200160002090805190602001906200019b9291906200020f565b508080620001a9906200066e565b9150506200014b565b50835160048190555080600560016101000a81548173ffffffffffffffffffffffffffffffffffffffff021916908373ffffffffffffffffffffffffffffffffffffffff1602179055505050505050620007d6565b600033905090565b8280546200021d9062000602565b90600052602060002090601f0160209004810192826200024157600085556200028d565b82601f106200025c57805160ff19168380011785556200028d565b828001600101855582156200028d579182015b828111156200028c5782518255916020019190600101906200026f565b5b5090506200029c9190620002a0565b5090565b5b80821115620002bb576000816000905550600101620002a1565b5090565b6000620002d6620002d08462000529565b62000500565b90508083825260208201905082856020860282011115620002fc57620002fb6200077d565b5b60005b858110156200035157815167ffffffffffffffff81111562000326576200032562000778565b5b808601620003358982620003f0565b85526020850194506020840193505050600181019050620002ff565b5050509392505050565b6000620003726200036c8462000558565b62000500565b90508281526020810184848401111562000391576200039062000782565b5b6200039e848285620005cc565b509392505050565b600081519050620003b781620007a2565b92915050565b600082601f830112620003d557620003d462000778565b5b8151620003e7848260208601620002bf565b91505092915050565b600082601f83011262000408576200040762000778565b5b81516200041a8482602086016200035b565b91505092915050565b6000815190506200043481620007bc565b92915050565b600080600080600060a086880312156200045957620004586200078c565b5b600086015167ffffffffffffffff8111156200047a576200047962000787565b5b6200048888828901620003f0565b955050602086015167ffffffffffffffff811115620004ac57620004ab62000787565b5b620004ba88828901620003bd565b9450506040620004cd8882890162000423565b9350506060620004e088828901620003a6565b9250506080620004f388828901620003a6565b9150509295509295909350565b60006200050c6200051f565b90506200051a828262000638565b919050565b6000604051905090565b600067ffffffffffffffff82111562000547576200054662000749565b5b602082029050602081019050919050565b600067ffffffffffffffff82111562000576576200057562000749565b5b620005818262000791565b9050602081019050919050565b60006200059b82620005a2565b9050919050565b600073ffffffffffffffffffffffffffffffffffffffff82169050919050565b6000819050919050565b60005b83811015620005ec578082015181840152602081019050620005cf565b83811115620005fc576000848401525b50505050565b600060028204905060018216806200061b57607f821691505b60208210811415620006325762000631620006eb565b5b50919050565b620006438262000791565b810181811067ffffffffffffffff8211171562000665576200066462000749565b5b80604052505050565b60006200067b82620005c2565b91507fffffffffffffffffffffffffffffffffffffffffffffffffffffffffffffffff821415620006b157620006b0620006bc565b5b600182019050919050565b7f4e487b7100000000000000000000000000000000000000000000000000000000600052601160045260246000fd5b7f4e487b7100000000000000000000000000000000000000000000000000000000600052602260045260246000fd5b7f4e487b7100000000000000000000000000000000000000000000000000000000600052603260045260246000fd5b7f4e487b7100000000000000000000000000000000000000000000000000000000600052604160045260246000fd5b600080fd5b600080fd5b600080fd5b600080fd5b600080fd5b6000601f19601f8301169050919050565b620007ad816200058e565b8114620007b957600080fd5b50565b620007c781620005c2565b8114620007d357600080fd5b50565b61147580620007e66000396000f3fe608060405234801561001057600080fd5b50600436106101005760003560e01c8063a8e4fb9011610097578063cbff75cb11610066578063cbff75cb14610267578063f2fde38b14610297578063f851a440146102b3578063ff91bb45146102d157610100565b8063a8e4fb90146101f1578063af640d0f1461020f578063b201c6961461022d578063b95046241461023757610100565b80637b352962116100d35780637b352962146101555780637f2ef1d5146101735780638d337b81146101a35780638da5cb5b146101d357610100565b806306fdde0314610105578063136c6dd3146101235780631a1dbabb1461012d578063715018a61461014b575b600080fd5b61010d6102ed565b60405161011a9190610f6f565b60405180910390f35b61012b61037b565b005b610135610480565b6040516101429190611071565b60405180910390f35b610153610486565b005b61015d6105c0565b60405161016a9190610f54565b60405180910390f35b61018d60048036038101906101889190610d01565b6105d3565b60405161019a9190610f6f565b60405180910390f35b6101bd60048036038101906101b89190610c94565b610678565b6040516101ca9190611071565b60405180910390f35b6101db6106c1565b6040516101e89190610f09565b60405180910390f35b6101f96106ea565b6040516102069190610f09565b60405180910390f35b610217610710565b6040516102249190611071565b60405180910390f35b610235610716565b005b610251600480360381019061024c9190610d01565b61081b565b60405161025e9190611071565b60405180910390f35b610281600480360381019061027c9190610c94565b610838565b60405161028e9190610f54565b60405180910390f35b6102b160048036038101906102ac9190610c94565b61088e565b005b6102bb610a37565b6040516102c89190610f09565b60405180910390f35b6102eb60048036038101906102e69190610cc1565b610a5d565b005b600180546102fa9061118e565b80601f01602080910402602001604051908101604052809291908181526020018280546103269061118e565b80156103735780601f1061034857610100808354040283529160200191610373565b820191906000526020600020905b81548152906001019060200180831161035657829003601f168201915b505050505081565b600360009054906101000a900473ffffffffffffffffffffffffffffffffffffffff1673ffffffffffffffffffffffffffffffffffffffff163373ffffffffffffffffffffffffffffffffffffffff1614806104245750600560019054906101000a900473ffffffffffffffffffffffffffffffffffffffff1673ffffffffffffffffffffffffffffffffffffffff163373ffffffffffffffffffffffffffffffffffffffff16145b610463576040517f08c379a000000000000000000000000000000000000000000000000000000000815260040161045a90610ff1565b60405180910390fd5b6001600560006101000a81548160ff021916908315150217905550565b60045481565b61048e610c62565b73ffffffffffffffffffffffffffffffffffffffff166104ac6106c1565b73ffffffffffffffffffffffffffffffffffffffff1614610502576040517f08c379a00000000000000000000000000000000000000000000000000000000081526004016104f990611011565b60405180910390fd5b600073ffffffffffffffffffffffffffffffffffffffff1660008054906101000a900473ffffffffffffffffffffffffffffffffffffffff1673ffffffffffffffffffffffffffffffffffffffff167f8be0079c531659141344cd1fd0a4f28419497f9722a3daafe3b4186f6b6457e060405160405180910390a360008060006101000a81548173ffffffffffffffffffffffffffffffffffffffff021916908373ffffffffffffffffffffffffffffffffffffffff160217905550565b600560009054906101000a900460ff1681565b60606006600083815260200190815260200160002080546105f39061118e565b80601f016020809104026020016040519081016040528092919081815260200182805461061f9061118e565b801561066c5780601f106106415761010080835404028352916020019161066c565b820191906000526020600020905b81548152906001019060200180831161064f57829003601f168201915b50505050509050919050565b6000600860008373ffffffffffffffffffffffffffffffffffffffff1673ffffffffffffffffffffffffffffffffffffffff168152602001908152602001600020549050919050565b60008060009054906101000a900473ffffffffffffffffffffffffffffffffffffffff16905090565b600360009054906101000a900473ffffffffffffffffffffffffffffffffffffffff1681565b60025481565b600360009054906101000a900473ffffffffffffffffffffffffffffffffffffffff1673ffffffffffffffffffffffffffffffffffffffff163373ffffffffffffffffffffffffffffffffffffffff1614806107bf5750600560019054906101000a900473ffffffffffffffffffffffffffffffffffffffff1673ffffffffffffffffffffffffffffffffffffffff163373ffffffffffffffffffffffffffffffffffffffff16145b6107fe576040517f08c379a00000000000000000000000000000000000000000000000000000000081526004016107f590611051565b60405180910390fd5b6000600560006101000a81548160ff021916908315150217905550565b600060076000838152602001908152602001600020549050919050565b6000600960008373ffffffffffffffffffffffffffffffffffffffff1673ffffffffffffffffffffffffffffffffffffffff16815260200190815260200160002060009054906101000a900460ff169050919050565b610896610c62565b73ffffffffffffffffffffffffffffffffffffffff166108b46106c1565b73ffffffffffffffffffffffffffffffffffffffff161461090a576040517f08c379a000000000000000000000000000000000000000000000000000000000815260040161090190611011565b60405180910390fd5b600073ffffffffffffffffffffffffffffffffffffffff168173ffffffffffffffffffffffffffffffffffffffff16141561097a576040517f08c379a000000000000000000000000000000000000000000000000000000000815260040161097190610f91565b60405180910390fd5b8073ffffffffffffffffffffffffffffffffffffffff1660008054906101000a900473ffffffffffffffffffffffffffffffffffffffff1673ffffffffffffffffffffffffffffffffffffffff167f8be0079c531659141344cd1fd0a4f28419497f9722a3daafe3b4186f6b6457e060405160405180910390a3806000806101000a81548173ffffffffffffffffffffffffffffffffffffffff021916908373ffffffffffffffffffffffffffffffffffffffff16021790555050565b600560019054906101000a900473ffffffffffffffffffffffffffffffffffffffff1681565b6000829050610a6b81610838565b15610aab576040517f08c379a0000000000000000000000000000000000000000000000000000000008152600401610aa290610fd1565b60405180910390fd5b600560009054906101000a900460ff1615610afb576040517f08c379a0000000000000000000000000000000000000000000000000000000008152600401610af290610fb1565b60405180910390fd5b6004548210610b3f576040517f08c379a0000000000000000000000000000000000000000000000000000000008152600401610b3690611031565b60405180910390fd5b81600860008373ffffffffffffffffffffffffffffffffffffffff1673ffffffffffffffffffffffffffffffffffffffff168152602001908152602001600020819055506001600960008373ffffffffffffffffffffffffffffffffffffffff1673ffffffffffffffffffffffffffffffffffffffff16815260200190815260200160002060006101000a81548160ff02191690831515021790555060016007600084815260200190815260200160002054610bfb91906110bd565b60076000848152602001908152602001600020819055507f92a915dcf3b2bfe93782e1b79159058460495495f5be81d1dba1f5f8e6e2c3218160066000858152602001908152602001600020604051610c55929190610f24565b60405180910390a1505050565b600033905090565b600081359050610c7981611411565b92915050565b600081359050610c8e81611428565b92915050565b600060208284031215610caa57610ca961121e565b5b6000610cb884828501610c6a565b91505092915050565b60008060408385031215610cd857610cd761121e565b5b6000610ce685828601610c6a565b9250506020610cf785828601610c7f565b9150509250929050565b600060208284031215610d1757610d1661121e565b5b6000610d2584828501610c7f565b91505092915050565b610d3781611113565b82525050565b610d4681611125565b82525050565b6000610d57826110a1565b610d6181856110ac565b9350610d7181856020860161115b565b610d7a81611223565b840191505092915050565b60008154610d928161118e565b610d9c81866110ac565b94506001821660008114610db75760018114610dc957610dfc565b60ff1983168652602086019350610dfc565b610dd28561108c565b60005b83811015610df457815481890152600182019150602081019050610dd5565b808801955050505b50505092915050565b6000610e126026836110ac565b9150610e1d82611234565b604082019050919050565b6000610e356021836110ac565b9150610e4082611283565b604082019050919050565b6000610e586016836110ac565b9150610e63826112d2565b602082019050919050565b6000610e7b602a836110ac565b9150610e86826112fb565b604082019050919050565b6000610e9e6020836110ac565b9150610ea98261134a565b602082019050919050565b6000610ec16023836110ac565b9150610ecc82611373565b604082019050919050565b6000610ee4602a836110ac565b9150610eef826113c2565b604082019050919050565b610f0381611151565b82525050565b6000602082019050610f1e6000830184610d2e565b92915050565b6000604082019050610f396000830185610d2e565b8181036020830152610f4b8184610d85565b90509392505050565b6000602082019050610f696000830184610d3d565b92915050565b60006020820190508181036000830152610f898184610d4c565b905092915050565b60006020820190508181036000830152610faa81610e05565b9050919050565b60006020820190508181036000830152610fca81610e28565b9050919050565b60006020820190508181036000830152610fea81610e4b565b9050919050565b6000602082019050818103600083015261100a81610e6e565b9050919050565b6000602082019050818103600083015261102a81610e91565b9050919050565b6000602082019050818103600083015261104a81610eb4565b9050919050565b6000602082019050818103600083015261106a81610ed7565b9050919050565b60006020820190506110866000830184610efa565b92915050565b60008190508160005260206000209050919050565b600081519050919050565b600082825260208201905092915050565b60006110c882611151565b91506110d383611151565b9250827fffffffffffffffffffffffffffffffffffffffffffffffffffffffffffffffff03821115611108576111076111c0565b5b828201905092915050565b600061111e82611131565b9050919050565b60008115159050919050565b600073ffffffffffffffffffffffffffffffffffffffff82169050919050565b6000819050919050565b60005b8381101561117957808201518184015260208101905061115e565b83811115611188576000848401525b50505050565b600060028204905060018216806111a657607f821691505b602082108114156111ba576111b96111ef565b5b50919050565b7f4e487b7100000000000000000000000000000000000000000000000000000000600052601160045260246000fd5b7f4e487b7100000000000000000000000000000000000000000000000000000000600052602260045260246000fd5b600080fd5b6000601f19601f8301169050919050565b7f4f776e61626c653a206e6577206f776e657220697320746865207a65726f206160008201527f6464726573730000000000000000000000000000000000000000000000000000602082015250565b7f566f74696e6720706572696f6420697320616c72656164792066696e6973686560008201527f6400000000000000000000000000000000000000000000000000000000000000602082015250565b7f557365722068617320616c726561647920766f74656400000000000000000000600082015250565b7f596f7520617265206e6f7420616c6c6f77656420746f2066696e69736820746860008201527f652070726f706f73616c00000000000000000000000000000000000000000000602082015250565b7f4f776e61626c653a2063616c6c6572206973206e6f7420746865206f776e6572600082015250565b7f54686520766f7465206973206e6f742070617274206f6620746865206f70746960008201527f6f6e730000000000000000000000000000000000000000000000000000000000602082015250565b7f596f7520617265206e6f7420616c6c6f77656420746f20726573756d6520746860008201527f652070726f706f73616c00000000000000000000000000000000000000000000602082015250565b61141a81611113565b811461142557600080fd5b50565b61143181611151565b811461143c57600080fd5b5056fea264697066735822122009826dd92a68f2f9ef37cebee63035ea98d69767f4351df25b684874b0e6e50c64736f6c63430008050033",
  "immutableReferences": {},
  "source": "// SPDX-License-Identifier: MIT\npragma solidity ^0.8.4;\n\n/*\n * @dev Provides information about the current execution context, including the\n * sender of the transaction and its data. While these are generally available\n * via msg.sender and msg.data, they should not be accessed in such a direct\n * manner, since when dealing with meta-transactions the account sending and\n * paying for execution may not be the actual sender (as far as an application\n * is concerned).\n *\n * This contract is only required for intermediate, library-like contracts.\n */\nabstract contract Context {\n    function _msgSender() internal view virtual returns (address) {\n        return msg.sender;\n    }\n\n    function _msgData() internal view virtual returns (bytes calldata) {\n        this; // silence state mutability warning without generating bytecode - see https://github.com/ethereum/solidity/issues/2691\n        return msg.data;\n    }\n}\n\n\n/**\n * @dev Contract module which provides a basic access control mechanism, where\n * there is an account (an owner) that can be granted exclusive access to\n * specific functions.\n *\n * By default, the owner account will be the one that deploys the contract. This\n * can later be changed with {transferOwnership}.\n *\n * This module is used through inheritance. It will make available the modifier\n * `onlyOwner`, which can be applied to your functions to restrict their use to\n * the owner.\n */\nabstract contract Ownable is Context {\n    address private _owner;\n\n    event OwnershipTransferred(address indexed previousOwner, address indexed newOwner);\n\n    /**\n     * @dev Initializes the contract setting the deployer as the initial owner.\n     */\n    constructor () {\n        address msgSender = _msgSender();\n        _owner = msgSender;\n        emit OwnershipTransferred(address(0), msgSender);\n    }\n\n    /**\n     * @dev Returns the address of the current owner.\n     */\n    function owner() public view virtual returns (address) {\n        return _owner;\n    }\n\n    /**\n     * @dev Throws if called by any account other than the owner.\n     */\n    modifier onlyOwner() {\n        require(owner() == _msgSender(), \"Ownable: caller is not the owner\");\n        _;\n    }\n\n    /**\n     * @dev Leaves the contract without owner. It will not be possible to call\n     * `onlyOwner` functions anymore. Can only be called by the current owner.\n     *\n     * NOTE: Renouncing ownership will leave the contract without an owner,\n     * thereby removing any functionality that is only available to the owner.\n     */\n    function renounceOwnership() public virtual onlyOwner {\n        emit OwnershipTransferred(_owner, address(0));\n        _owner = address(0);\n    }\n\n    /**\n     * @dev Transfers ownership of the contract to a new account (`newOwner`).\n     * Can only be called by the current owner.\n     */\n    function transferOwnership(address newOwner) public virtual onlyOwner {\n        require(newOwner != address(0), \"Ownable: new owner is the zero address\");\n        emit OwnershipTransferred(_owner, newOwner);\n        _owner = newOwner;\n    }\n}\n\n\ncontract Propose is Ownable {\n    \n    string public name; // name or title of the proposal\n    uint256 public id; // proposal ID given by the proposal factory\n    address public proposer;  // address of the one who proposed\n    uint256 public optionsCount; // number of options\n    bool public isFinished;   // is the proposal finished or not\n    address public admin; // the address of the team admin\n\n    mapping(uint256 => string) proposalOptions; // showing the options name of an option ID\n    mapping(uint256 => uint256) optionVoteCount; // showing the number of votes of an option ID\n    mapping(address => uint256) userVote;  // showing the option ID number that an address voted\n    mapping(address => bool) voted;  //showing whether the user voted or not\n\n    /**\n        @dev Constructor to initiate the created proposal\n        @param _name The name or title of the proposal\n        @param _options The array of options of the proposal\n        @param _id The proposal ID assigned by the proposal factory\n        @param _proposer The address who proposed\n    */\n    constructor(string memory _name, string[] memory _options, uint256 _id, address _proposer, address _admin) {       \n        name = _name;\n        id = _id;\n        proposer = _proposer;\n        for (uint256 i = 0; i < _options.length; i++) {\n            proposalOptions[i] = _options[i];\n        }\n        optionsCount = _options.length;\n        admin = _admin;\n    }\n\n    event UserVoted(address _voter, string vote);\n\n    /**\n        @dev Casting a vote\n        @param _vote The option number that the caller voted for\n    */\n    function castVote(address _voter, uint256 _vote) public {\n        address user = _voter;\n        require(!isVoted(user), 'User has already voted');\n        require(!isFinished, 'Voting period is already finished');\n        require(_vote < optionsCount, 'The vote is not part of the options');\n        userVote[user] = _vote;\n        voted[user] = true;\n        optionVoteCount[_vote] = optionVoteCount[_vote] + 1;\n        emit UserVoted(user, proposalOptions[_vote]);   \n    }\n\n    /**\n        @dev To check if the user has already voted\n        @param _voter The address that needs to be checked\n        @return If the address voted or not\n    */\n    function isVoted(address _voter) public view returns (bool){\n        return voted[_voter];\n    }\n\n    /**\n        @dev To get the vote of an address\n        @param _voter The address that needs to be checked\n        @return The option number that the address voted\n    */\n    function getVote(address _voter) public view returns (uint256){\n        return userVote[_voter];\n    }\n\n    /**\n        @dev To get the number of votes of an option\n        @param optionID The option that will be checked\n        @return The number of votes for that option\n    */\n    function getOptionVoteCount(uint256 optionID) public view returns (uint256){\n        return optionVoteCount[optionID];\n    }\n\n    /**\n        @dev To get the title of an option id\n        @param optionID The option that will be checked\n        @return The title of the option ID\n    */\n    function getOptionTitle(uint256 optionID) public view returns (string memory){\n        return proposalOptions[optionID];\n    }\n\n    /**\n        @dev To finish the proposal so it can no longer accept votes, can only be done by the owner of the proposal which is the proposer\n    */\n    function finishProposal() public{\n        require((msg.sender == proposer || msg.sender == admin), 'You are not allowed to finish the proposal');\n\n        isFinished = true;\n    }\n\n    /**\n        @dev To resume the proposal so it can accept votes again, can only be done by the owner of the proposal which is the proposer\n    */\n    function resumeProposal() public {\n        require((msg.sender == proposer || msg.sender == admin), 'You are not allowed to resume the proposal');\n\n        isFinished = false;\n    }\n}",
  "sourcePath": "/Users/benjnp/mls/web/Pollo-project-AIBS/contracts/Propose.sol",
  "compiler": {
    "name": "solc",
    "version": "0.8.5+commit.a4f2e591.Emscripten.clang"
  },
  "schemaVersion": "3.3.3",
  "updatedAt": "2021-06-17T16:45:33.133Z",
  "devdoc": {
    "kind": "dev",
    "methods": {
      "castVote(address,uint256)": {
        "details": "Casting a vote",
        "params": {
          "_vote": "The option number that the caller voted for"
        }
      },
      "constructor": {
        "details": "Constructor to initiate the created proposal",
        "params": {
          "_id": "The proposal ID assigned by the proposal factory",
          "_name": "The name or title of the proposal",
          "_options": "The array of options of the proposal",
          "_proposer": "The address who proposed"
        }
      },
      "finishProposal()": {
        "details": "To finish the proposal so it can no longer accept votes, can only be done by the owner of the proposal which is the proposer"
      },
      "getOptionTitle(uint256)": {
        "details": "To get the title of an option id",
        "params": {
          "optionID": "The option that will be checked"
        },
        "returns": {
          "_0": "The title of the option ID"
        }
      },
      "getOptionVoteCount(uint256)": {
        "details": "To get the number of votes of an option",
        "params": {
          "optionID": "The option that will be checked"
        },
        "returns": {
          "_0": "The number of votes for that option"
        }
      },
      "getVote(address)": {
        "details": "To get the vote of an address",
        "params": {
          "_voter": "The address that needs to be checked"
        },
        "returns": {
          "_0": "The option number that the address voted"
        }
      },
      "isVoted(address)": {
        "details": "To check if the user has already voted",
        "params": {
          "_voter": "The address that needs to be checked"
        },
        "returns": {
          "_0": "If the address voted or not"
        }
      },
      "owner()": {
        "details": "Returns the address of the current owner."
      },
      "renounceOwnership()": {
        "details": "Leaves the contract without owner. It will not be possible to call `onlyOwner` functions anymore. Can only be called by the current owner. NOTE: Renouncing ownership will leave the contract without an owner, thereby removing any functionality that is only available to the owner."
      },
      "resumeProposal()": {
        "details": "To resume the proposal so it can accept votes again, can only be done by the owner of the proposal which is the proposer"
      },
      "transferOwnership(address)": {
        "details": "Transfers ownership of the contract to a new account (`newOwner`). Can only be called by the current owner."
      }
    },
    "version": 1
  },
  "userdoc": {
    "kind": "user",
    "methods": {},
    "version": 1
  }
}